{
  "_format": "hh-sol-artifact-1",
  "contractName": "Coinflip",
  "sourceName": "contracts/Coinflip.sol",
  "abi": [
    {
      "inputs": [],
      "stateMutability": "nonpayable",
      "type": "constructor"
    },
    {
      "anonymous": false,
      "inputs": [
        {
          "indexed": true,
          "internalType": "address",
          "name": "previousOwner",
          "type": "address"
        },
        {
          "indexed": true,
          "internalType": "address",
          "name": "newOwner",
          "type": "address"
        }
      ],
      "name": "OwnershipTransferred",
      "type": "event"
    },
    {
      "anonymous": false,
      "inputs": [
        {
          "indexed": false,
          "internalType": "uint256",
          "name": "result",
          "type": "uint256"
        }
      ],
      "name": "filpFinshed",
      "type": "event"
    },
    {
      "anonymous": false,
      "inputs": [
        {
          "indexed": false,
          "internalType": "string",
          "name": "description",
          "type": "string"
        }
      ],
      "name": "logNewProvableQuery",
      "type": "event"
    },
    {
      "anonymous": false,
      "inputs": [
        {
          "indexed": true,
          "internalType": "address",
          "name": "caller",
          "type": "address"
        },
        {
          "indexed": false,
          "internalType": "uint256",
          "name": "amount",
          "type": "uint256"
        }
      ],
      "name": "userWithdrawal",
      "type": "event"
    },
    {
      "inputs": [
        {
          "internalType": "uint256",
          "name": "amount",
          "type": "uint256"
        }
      ],
      "name": "claimETH",
      "outputs": [],
      "stateMutability": "nonpayable",
      "type": "function"
    },
    {
      "inputs": [],
      "name": "contractBalance",
      "outputs": [
        {
          "internalType": "uint256",
          "name": "",
          "type": "uint256"
        }
      ],
      "stateMutability": "view",
      "type": "function"
    },
    {
      "inputs": [
        {
          "internalType": "uint256",
          "name": "oneZero",
          "type": "uint256"
        }
      ],
      "name": "flip",
      "outputs": [],
      "stateMutability": "payable",
      "type": "function"
    },
    {
      "inputs": [],
      "name": "freeCallback",
      "outputs": [
        {
          "internalType": "bool",
          "name": "",
          "type": "bool"
        }
      ],
      "stateMutability": "view",
      "type": "function"
    },
    {
      "inputs": [],
      "name": "fundContract",
      "outputs": [],
      "stateMutability": "payable",
      "type": "function"
    },
    {
      "inputs": [],
      "name": "fundWinnings",
      "outputs": [],
      "stateMutability": "payable",
      "type": "function"
    },
    {
      "inputs": [],
      "name": "getWinningsBalance",
      "outputs": [
        {
          "internalType": "uint256",
          "name": "",
          "type": "uint256"
        }
      ],
      "stateMutability": "view",
      "type": "function"
    },
    {
      "inputs": [],
      "name": "owner",
      "outputs": [
        {
          "internalType": "address",
          "name": "",
          "type": "address"
        }
      ],
      "stateMutability": "view",
      "type": "function"
    },
    {
      "inputs": [
        {
          "internalType": "address",
          "name": "",
          "type": "address"
        }
      ],
      "name": "playerWinnings",
      "outputs": [
        {
          "internalType": "uint256",
          "name": "",
          "type": "uint256"
        }
      ],
      "stateMutability": "view",
      "type": "function"
    },
    {
      "inputs": [],
      "name": "renounceOwnership",
      "outputs": [],
      "stateMutability": "nonpayable",
      "type": "function"
    },
    {
      "inputs": [
        {
          "internalType": "address",
          "name": "newOwner",
          "type": "address"
        }
      ],
      "name": "transferOwnership",
      "outputs": [],
      "stateMutability": "nonpayable",
      "type": "function"
    },
    {
      "inputs": [
        {
          "internalType": "address",
          "name": "",
          "type": "address"
        }
      ],
      "name": "waiting",
      "outputs": [
        {
          "internalType": "address",
          "name": "playerAddress",
          "type": "address"
        },
        {
          "internalType": "uint256",
          "name": "betValue",
          "type": "uint256"
        },
        {
          "internalType": "uint256",
          "name": "headsTails",
          "type": "uint256"
        }
      ],
      "stateMutability": "view",
      "type": "function"
    },
    {
      "inputs": [],
      "name": "withdrawAll",
      "outputs": [],
      "stateMutability": "nonpayable",
      "type": "function"
    },
    {
      "inputs": [],
      "name": "withdrawUserWinnings",
      "outputs": [],
      "stateMutability": "nonpayable",
      "type": "function"
    }
  ],
  "bytecode": "0x6080604052600160ff1b6004556006805460ff1916600117905534801561002557600080fd5b50600080546001600160a01b031916339081178255604051909182917f8be0079c531659141344cd1fd0a4f28419497f9722a3daafe3b4186f6b6457e0908290a350610b21806100766000396000f3fe6080604052600436106100dd5760003560e01c80638da5cb5b1161007f578063bd097e2111610059578063bd097e2114610208578063e437786d14610210578063f2fde38b1461027c578063fe96973a1461029c57600080fd5b80638da5cb5b146101c3578063a5ce8496146101eb578063b3e25412146101f357600080fd5b8063741c0a0f116100bb578063741c0a0f1461014c578063853828b61461016e578063876c0d59146101835780638b7afe2e146101ad57600080fd5b8063221e885d146100e2578063252f4d81146100f7578063715018a614610137575b600080fd5b6100f56100f03660046109fc565b6102bc565b005b34801561010357600080fd5b506101246101123660046109d5565b60016020526000908152604090205481565b6040519081526020015b60405180910390f35b34801561014357600080fd5b506100f5610442565b34801561015857600080fd5b5033600090815260016020526040902054610124565b34801561017a57600080fd5b506100f56104b6565b34801561018f57600080fd5b5060065461019d9060ff1681565b604051901515815260200161012e565b3480156101b957600080fd5b5061012460055481565b3480156101cf57600080fd5b506000546040516001600160a01b03909116815260200161012e565b6100f561051c565b3480156101ff57600080fd5b506100f5610572565b6100f561063f565b34801561021c57600080fd5b5061025761022b3660046109d5565b60026020819052600091825260409091208054600182015491909201546001600160a01b039092169183565b604080516001600160a01b03909416845260208401929092529082015260600161012e565b34801561028857600080fd5b506100f56102973660046109d5565b61067a565b3480156102a857600080fd5b506100f56102b73660046109fc565b6106b0565b34600554116103125760405162461bcd60e51b815260206004820152601a60248201527f576520646f6e2774206861766520656e6f7567682066756e647300000000000060448201526064015b60405180910390fd5b60408051606081018252338082523460208301529181018390526000610336610774565b905081604001518114156103ea57604051600181527f8dd156d70678f56c23b7158d46721d0f9dc9873d9956eab396dbf665b156c4df9060200160405180910390a1600061039361038c846020015160026107c8565b6000610850565b90506103a56005548460200151610850565b6005556001600160a01b0384166000908152600160205260409020546103cb90826108b6565b6001600160a01b0385166000908152600160205260409020555061043c565b604051600081527f8dd156d70678f56c23b7158d46721d0f9dc9873d9956eab396dbf665b156c4df9060200160405180910390a161043860055461043384602001516000610850565b6108b6565b6005555b50505050565b6000546001600160a01b0316331461046c5760405162461bcd60e51b815260040161030990610a14565b600080546040516001600160a01b03909116907f8be0079c531659141344cd1fd0a4f28419497f9722a3daafe3b4186f6b6457e0908390a3600080546001600160a01b0319169055565b6000546001600160a01b031633146104e05760405162461bcd60e51b815260040161030990610a14565b600580546000918290556040519091339183156108fc0291849190818181858888f19350505050158015610518573d6000803e3d6000fd5b5050565b6000546001600160a01b031633146105465760405162461bcd60e51b815260040161030990610a14565b3360009081526001602052604090205461056090346108b6565b33600090815260016020526040902055565b336000908152600160205260409020546105c55760405162461bcd60e51b81526020600482015260146024820152734e6f2066756e647320746f20776974686472617760601b6044820152606401610309565b33600081815260016020526040808220805490839055905190929183156108fc02918491818181858888f19350505050158015610606573d6000803e3d6000fd5b5060405181815233907f42b2a4ad2d4bdf57e819ccd3c6ce6d0a8d6d20b5d3dbf94ef2b05c42f523c6109060200160405180910390a250565b6000546001600160a01b031633146106695760405162461bcd60e51b815260040161030990610a14565b610675600554346108b6565b600555565b6000546001600160a01b031633146106a45760405162461bcd60e51b815260040161030990610a14565b6106ad81610915565b50565b6000546001600160a01b031633146106da5760405162461bcd60e51b815260040161030990610a14565b600080546040516001600160a01b039091169083908381818185875af1925050503d8060008114610727576040519150601f19603f3d011682016040523d82523d6000602084013e61072c565b606091505b50509050806105185760405162461bcd60e51b81526020600482015260146024820152732330b4b632b2103a379039b2b7321022ba3432b960611b6044820152606401610309565b600080610782436001610850565b6003549040915081141561079557600080fd5b600381905560006107a7600283610aab565b90506000816001146107ba5760006107bd565b60015b60ff16949350505050565b6000826107d75750600061084a565b60006107e38385610a75565b9050826107f08583610a61565b146108475760405162461bcd60e51b815260206004820152602160248201527f536166654d6174683a206d756c7469706c69636174696f6e206f766572666c6f6044820152607760f81b6064820152608401610309565b90505b92915050565b6000828211156108a25760405162461bcd60e51b815260206004820152601e60248201527f536166654d6174683a207375627472616374696f6e206f766572666c6f7700006044820152606401610309565b60006108ae8385610a94565b949350505050565b6000806108c38385610a49565b9050838110156108475760405162461bcd60e51b815260206004820152601b60248201527f536166654d6174683a206164646974696f6e206f766572666c6f7700000000006044820152606401610309565b6001600160a01b03811661097a5760405162461bcd60e51b815260206004820152602660248201527f4f776e61626c653a206e6577206f776e657220697320746865207a65726f206160448201526564647265737360d01b6064820152608401610309565b600080546040516001600160a01b03808516939216917f8be0079c531659141344cd1fd0a4f28419497f9722a3daafe3b4186f6b6457e091a3600080546001600160a01b0319166001600160a01b0392909216919091179055565b6000602082840312156109e6578081fd5b81356001600160a01b0381168114610847578182fd5b600060208284031215610a0d578081fd5b5035919050565b6020808252818101527f4f776e61626c653a2063616c6c6572206973206e6f7420746865206f776e6572604082015260600190565b60008219821115610a5c57610a5c610abf565b500190565b600082610a7057610a70610ad5565b500490565b6000816000190483118215151615610a8f57610a8f610abf565b500290565b600082821015610aa657610aa6610abf565b500390565b600082610aba57610aba610ad5565b500690565b634e487b7160e01b600052601160045260246000fd5b634e487b7160e01b600052601260045260246000fdfea26469706673582212209b38839cd7118600145494489ff7956599255888bbe82796b04dfc78282766d664736f6c63430008040033",
  "linkReferences": {},
  "deployedLinkReferences": {}
}