{
  "_format": "hh-sol-artifact-1",
  "contractName": "Coinflip",
  "sourceName": "contracts/Coinflip.sol",
  "abi": [
    {
      "inputs": [],
      "stateMutability": "nonpayable",
      "type": "constructor"
    },
    {
      "anonymous": false,
      "inputs": [
        {
          "indexed": true,
          "internalType": "address",
          "name": "previousOwner",
          "type": "address"
        },
        {
          "indexed": true,
          "internalType": "address",
          "name": "newOwner",
          "type": "address"
        }
      ],
      "name": "OwnershipTransferred",
      "type": "event"
    },
    {
      "anonymous": false,
      "inputs": [
        {
          "indexed": false,
          "internalType": "string",
          "name": "description",
          "type": "string"
        }
      ],
      "name": "logNewProvableQuery",
      "type": "event"
    },
    {
      "anonymous": false,
      "inputs": [
        {
          "indexed": true,
          "internalType": "address",
          "name": "caller",
          "type": "address"
        },
        {
          "indexed": false,
          "internalType": "uint256",
          "name": "amount",
          "type": "uint256"
        }
      ],
      "name": "userWithdrawal",
      "type": "event"
    },
    {
      "inputs": [],
      "name": "contractBalance",
      "outputs": [
        {
          "internalType": "uint256",
          "name": "",
          "type": "uint256"
        }
      ],
      "stateMutability": "view",
      "type": "function"
    },
    {
      "inputs": [
        {
          "internalType": "uint256",
          "name": "oneZero",
          "type": "uint256"
        }
      ],
      "name": "flip",
      "outputs": [],
      "stateMutability": "payable",
      "type": "function"
    },
    {
      "inputs": [],
      "name": "freeCallback",
      "outputs": [
        {
          "internalType": "bool",
          "name": "",
          "type": "bool"
        }
      ],
      "stateMutability": "view",
      "type": "function"
    },
    {
      "inputs": [],
      "name": "fundContract",
      "outputs": [],
      "stateMutability": "payable",
      "type": "function"
    },
    {
      "inputs": [],
      "name": "fundWinnings",
      "outputs": [],
      "stateMutability": "payable",
      "type": "function"
    },
    {
      "inputs": [],
      "name": "getWinningsBalance",
      "outputs": [
        {
          "internalType": "uint256",
          "name": "",
          "type": "uint256"
        }
      ],
      "stateMutability": "view",
      "type": "function"
    },
    {
      "inputs": [],
      "name": "owner",
      "outputs": [
        {
          "internalType": "address",
          "name": "",
          "type": "address"
        }
      ],
      "stateMutability": "view",
      "type": "function"
    },
    {
      "inputs": [
        {
          "internalType": "address",
          "name": "",
          "type": "address"
        }
      ],
      "name": "playerWinnings",
      "outputs": [
        {
          "internalType": "uint256",
          "name": "",
          "type": "uint256"
        }
      ],
      "stateMutability": "view",
      "type": "function"
    },
    {
      "inputs": [],
      "name": "renounceOwnership",
      "outputs": [],
      "stateMutability": "nonpayable",
      "type": "function"
    },
    {
      "inputs": [
        {
          "internalType": "address",
          "name": "newOwner",
          "type": "address"
        }
      ],
      "name": "transferOwnership",
      "outputs": [],
      "stateMutability": "nonpayable",
      "type": "function"
    },
    {
      "inputs": [
        {
          "internalType": "address",
          "name": "",
          "type": "address"
        }
      ],
      "name": "waiting",
      "outputs": [
        {
          "internalType": "address",
          "name": "playerAddress",
          "type": "address"
        },
        {
          "internalType": "uint256",
          "name": "betValue",
          "type": "uint256"
        },
        {
          "internalType": "uint256",
          "name": "headsTails",
          "type": "uint256"
        }
      ],
      "stateMutability": "view",
      "type": "function"
    },
    {
      "inputs": [],
      "name": "withdrawAll",
      "outputs": [],
      "stateMutability": "nonpayable",
      "type": "function"
    },
    {
      "inputs": [],
      "name": "withdrawUserWinnings",
      "outputs": [],
      "stateMutability": "nonpayable",
      "type": "function"
    }
  ],
  "bytecode": "0x6080604052600160ff1b6004556006805460ff1916600117905534801561002557600080fd5b50600080546001600160a01b031916339081178255604051909182917f8be0079c531659141344cd1fd0a4f28419497f9722a3daafe3b4186f6b6457e0908290a3506109fd806100766000396000f3fe6080604052600436106100c25760003560e01c80638b7afe2e1161007f578063b3e2541211610059578063b3e25412146101d8578063bd097e21146101ed578063e437786d146101f5578063f2fde38b1461026157600080fd5b80638b7afe2e146101925780638da5cb5b146101a8578063a5ce8496146101d057600080fd5b8063221e885d146100c7578063252f4d81146100dc578063715018a61461011c578063741c0a0f14610131578063853828b614610153578063876c0d5914610168575b600080fd5b6100da6100d53660046108f6565b610281565b005b3480156100e857600080fd5b506101096100f73660046108cf565b60016020526000908152604090205481565b6040519081526020015b60405180910390f35b34801561012857600080fd5b506100da61039f565b34801561013d57600080fd5b5033600090815260016020526040902054610109565b34801561015f57600080fd5b506100da610413565b34801561017457600080fd5b506006546101829060ff1681565b6040519015158152602001610113565b34801561019e57600080fd5b5061010960055481565b3480156101b457600080fd5b506000546040516001600160a01b039091168152602001610113565b6100da610479565b3480156101e457600080fd5b506100da6104cf565b6100da61059c565b34801561020157600080fd5b5061023c6102103660046108cf565b60026020819052600091825260409091208054600182015491909201546001600160a01b039092169183565b604080516001600160a01b039094168452602084019290925290820152606001610113565b34801561026d57600080fd5b506100da61027c3660046108cf565b6105d7565b34600554116102d75760405162461bcd60e51b815260206004820152601a60248201527f576520646f6e2774206861766520656e6f7567682066756e647300000000000060448201526064015b60405180910390fd5b604080516060810182523380825234602083015291810183905260006102fb61060d565b9050816040015181141561037b57600061032461031d84602001516002610665565b60006106ed565b905061033660055484602001516106ed565b6005556001600160a01b03841660009081526001602052604090205461035c9082610753565b6001600160a01b03851660009081526001602052604090205550610399565b610395600554610390846020015160006106ed565b610753565b6005555b50505050565b6000546001600160a01b031633146103c95760405162461bcd60e51b81526004016102ce9061090e565b600080546040516001600160a01b03909116907f8be0079c531659141344cd1fd0a4f28419497f9722a3daafe3b4186f6b6457e0908390a3600080546001600160a01b0319169055565b6000546001600160a01b0316331461043d5760405162461bcd60e51b81526004016102ce9061090e565b600580546000918290556040519091339183156108fc0291849190818181858888f19350505050158015610475573d6000803e3d6000fd5b5050565b6000546001600160a01b031633146104a35760405162461bcd60e51b81526004016102ce9061090e565b336000908152600160205260409020546104bd9034610753565b33600090815260016020526040902055565b336000908152600160205260409020546105225760405162461bcd60e51b81526020600482015260146024820152734e6f2066756e647320746f20776974686472617760601b60448201526064016102ce565b33600081815260016020526040808220805490839055905190929183156108fc02918491818181858888f19350505050158015610563573d6000803e3d6000fd5b5060405181815233907f42b2a4ad2d4bdf57e819ccd3c6ce6d0a8d6d20b5d3dbf94ef2b05c42f523c6109060200160405180910390a250565b6000546001600160a01b031633146105c65760405162461bcd60e51b81526004016102ce9061090e565b6105d260055434610753565b600555565b6000546001600160a01b031633146106015760405162461bcd60e51b81526004016102ce9061090e565b61060a816107b2565b50565b60008061061b4360016106ed565b6003549040915081141561062e57600080fd5b6003819055600454600090610644908390610872565b905060008160011461065757600061065a565b60015b60ff16949350505050565b600082610674575060006106e7565b6000610680838561097b565b90508261068d858361095b565b146106e45760405162461bcd60e51b815260206004820152602160248201527f536166654d6174683a206d756c7469706c69636174696f6e206f766572666c6f6044820152607760f81b60648201526084016102ce565b90505b92915050565b60008282111561073f5760405162461bcd60e51b815260206004820152601e60248201527f536166654d6174683a207375627472616374696f6e206f766572666c6f77000060448201526064016102ce565b600061074b838561099a565b949350505050565b6000806107608385610943565b9050838110156106e45760405162461bcd60e51b815260206004820152601b60248201527f536166654d6174683a206164646974696f6e206f766572666c6f77000000000060448201526064016102ce565b6001600160a01b0381166108175760405162461bcd60e51b815260206004820152602660248201527f4f776e61626c653a206e6577206f776e657220697320746865207a65726f206160448201526564647265737360d01b60648201526084016102ce565b600080546040516001600160a01b03808516939216917f8be0079c531659141344cd1fd0a4f28419497f9722a3daafe3b4186f6b6457e091a3600080546001600160a01b0319166001600160a01b0392909216919091179055565b60008082116108c35760405162461bcd60e51b815260206004820152601a60248201527f536166654d6174683a206469766973696f6e206279207a65726f00000000000060448201526064016102ce565b600061074b838561095b565b6000602082840312156108e0578081fd5b81356001600160a01b03811681146106e4578182fd5b600060208284031215610907578081fd5b5035919050565b6020808252818101527f4f776e61626c653a2063616c6c6572206973206e6f7420746865206f776e6572604082015260600190565b60008219821115610956576109566109b1565b500190565b60008261097657634e487b7160e01b81526012600452602481fd5b500490565b6000816000190483118215151615610995576109956109b1565b500290565b6000828210156109ac576109ac6109b1565b500390565b634e487b7160e01b600052601160045260246000fdfea2646970667358221220272a29b077a483f44faf6a1819153e5e40adda1683478c895b7ab8fa054e218f64736f6c63430008040033",
  "linkReferences": {},
  "deployedLinkReferences": {}
}