{
  "_format": "hh-sol-artifact-1",
  "contractName": "Coinflip",
  "sourceName": "contracts/Coinflip.sol",
  "abi": [
    {
      "inputs": [],
      "stateMutability": "nonpayable",
      "type": "constructor"
    },
    {
      "anonymous": false,
      "inputs": [
        {
          "indexed": true,
          "internalType": "address",
          "name": "previousOwner",
          "type": "address"
        },
        {
          "indexed": true,
          "internalType": "address",
          "name": "newOwner",
          "type": "address"
        }
      ],
      "name": "OwnershipTransferred",
      "type": "event"
    },
    {
      "anonymous": false,
      "inputs": [
        {
          "indexed": false,
          "internalType": "uint256",
          "name": "result",
          "type": "uint256"
        }
      ],
      "name": "filpFinshed",
      "type": "event"
    },
    {
      "anonymous": false,
      "inputs": [
        {
          "indexed": false,
          "internalType": "string",
          "name": "description",
          "type": "string"
        }
      ],
      "name": "logNewProvableQuery",
      "type": "event"
    },
    {
      "anonymous": false,
      "inputs": [
        {
          "indexed": true,
          "internalType": "address",
          "name": "caller",
          "type": "address"
        },
        {
          "indexed": false,
          "internalType": "uint256",
          "name": "amount",
          "type": "uint256"
        }
      ],
      "name": "userWithdrawal",
      "type": "event"
    },
    {
      "inputs": [
        {
          "internalType": "uint256",
          "name": "amount",
          "type": "uint256"
        }
      ],
      "name": "claimETH",
      "outputs": [],
      "stateMutability": "nonpayable",
      "type": "function"
    },
    {
      "inputs": [],
      "name": "contractBalance",
      "outputs": [
        {
          "internalType": "uint256",
          "name": "",
          "type": "uint256"
        }
      ],
      "stateMutability": "view",
      "type": "function"
    },
    {
      "inputs": [
        {
          "internalType": "uint256",
          "name": "oneZero",
          "type": "uint256"
        }
      ],
      "name": "flip",
      "outputs": [],
      "stateMutability": "payable",
      "type": "function"
    },
    {
      "inputs": [],
      "name": "freeCallback",
      "outputs": [
        {
          "internalType": "bool",
          "name": "",
          "type": "bool"
        }
      ],
      "stateMutability": "view",
      "type": "function"
    },
    {
      "inputs": [],
      "name": "fundContract",
      "outputs": [],
      "stateMutability": "payable",
      "type": "function"
    },
    {
      "inputs": [],
      "name": "fundWinnings",
      "outputs": [],
      "stateMutability": "payable",
      "type": "function"
    },
    {
      "inputs": [],
      "name": "getWinningsBalance",
      "outputs": [
        {
          "internalType": "uint256",
          "name": "",
          "type": "uint256"
        }
      ],
      "stateMutability": "view",
      "type": "function"
    },
    {
      "inputs": [],
      "name": "owner",
      "outputs": [
        {
          "internalType": "address",
          "name": "",
          "type": "address"
        }
      ],
      "stateMutability": "view",
      "type": "function"
    },
    {
      "inputs": [
        {
          "internalType": "address",
          "name": "",
          "type": "address"
        }
      ],
      "name": "playerWinnings",
      "outputs": [
        {
          "internalType": "uint256",
          "name": "",
          "type": "uint256"
        }
      ],
      "stateMutability": "view",
      "type": "function"
    },
    {
      "inputs": [],
      "name": "renounceOwnership",
      "outputs": [],
      "stateMutability": "nonpayable",
      "type": "function"
    },
    {
      "inputs": [
        {
          "internalType": "address",
          "name": "newOwner",
          "type": "address"
        }
      ],
      "name": "transferOwnership",
      "outputs": [],
      "stateMutability": "nonpayable",
      "type": "function"
    },
    {
      "inputs": [
        {
          "internalType": "address",
          "name": "",
          "type": "address"
        }
      ],
      "name": "waiting",
      "outputs": [
        {
          "internalType": "address",
          "name": "playerAddress",
          "type": "address"
        },
        {
          "internalType": "uint256",
          "name": "betValue",
          "type": "uint256"
        },
        {
          "internalType": "uint256",
          "name": "headsTails",
          "type": "uint256"
        }
      ],
      "stateMutability": "view",
      "type": "function"
    },
    {
      "inputs": [],
      "name": "withdrawAll",
      "outputs": [],
      "stateMutability": "nonpayable",
      "type": "function"
    },
    {
      "inputs": [],
      "name": "withdrawUserWinnings",
      "outputs": [],
      "stateMutability": "nonpayable",
      "type": "function"
    }
  ],
  "bytecode": "0x6080604052600160ff1b6004556006805460ff1916600117905534801561002557600080fd5b50600080546001600160a01b031916339081178255604051909182917f8be0079c531659141344cd1fd0a4f28419497f9722a3daafe3b4186f6b6457e0908290a350610c82806100766000396000f3fe6080604052600436106100dd5760003560e01c80638da5cb5b1161007f578063bd097e2111610059578063bd097e2114610208578063e437786d14610210578063f2fde38b1461027c578063fe96973a1461029c57600080fd5b80638da5cb5b146101c3578063a5ce8496146101eb578063b3e25412146101f357600080fd5b8063741c0a0f116100bb578063741c0a0f1461014c578063853828b61461016e578063876c0d59146101835780638b7afe2e146101ad57600080fd5b8063221e885d146100e2578063252f4d81146100f7578063715018a614610137575b600080fd5b6100f56100f0366004610b28565b6102bc565b005b34801561010357600080fd5b50610124610112366004610b01565b60016020526000908152604090205481565b6040519081526020015b60405180910390f35b34801561014357600080fd5b506100f56104a5565b34801561015857600080fd5b5033600090815260016020526040902054610124565b34801561017a57600080fd5b506100f5610519565b34801561018f57600080fd5b5060065461019d9060ff1681565b604051901515815260200161012e565b3480156101b957600080fd5b5061012460055481565b3480156101cf57600080fd5b506000546040516001600160a01b03909116815260200161012e565b6100f561057f565b3480156101ff57600080fd5b506100f56105d5565b6100f56106a2565b34801561021c57600080fd5b5061025761022b366004610b01565b60026020819052600091825260409091208054600182015491909201546001600160a01b039092169183565b604080516001600160a01b03909416845260208401929092529082015260600161012e565b34801561028857600080fd5b506100f5610297366004610b01565b6106dd565b3480156102a857600080fd5b506100f56102b7366004610b28565b610713565b34600554116103125760405162461bcd60e51b815260206004820152601a60248201527f576520646f6e2774206861766520656e6f7567682066756e647300000000000060448201526064015b60405180910390fd5b604080516060810182523380825234602083015291810183905260006103366107d7565b9050816040015181141561042457604051600181527f8dd156d70678f56c23b7158d46721d0f9dc9873d9956eab396dbf665b156c4df9060200160405180910390a1600061039361038c8460200151600261082f565b60006108b7565b90506103a560055484602001516108b7565b6005556001600160a01b0384166000908152600160205260409020546103cb908261091d565b60016000866001600160a01b03166001600160a01b031681526020019081526020016000208190555061041e60405180604001604052806009815260200168656d6974207472756560b81b81525061097c565b5061049f565b604051600081527f8dd156d70678f56c23b7158d46721d0f9dc9873d9956eab396dbf665b156c4df9060200160405180910390a161047260055461046d846020015160006108b7565b61091d565b60055560408051808201909152600a815269656d69742066616c736560b01b602082015261049f9061097c565b50505050565b6000546001600160a01b031633146104cf5760405162461bcd60e51b815260040161030990610b93565b600080546040516001600160a01b03909116907f8be0079c531659141344cd1fd0a4f28419497f9722a3daafe3b4186f6b6457e0908390a3600080546001600160a01b0319169055565b6000546001600160a01b031633146105435760405162461bcd60e51b815260040161030990610b93565b600580546000918290556040519091339183156108fc0291849190818181858888f1935050505015801561057b573d6000803e3d6000fd5b5050565b6000546001600160a01b031633146105a95760405162461bcd60e51b815260040161030990610b93565b336000908152600160205260409020546105c3903461091d565b33600090815260016020526040902055565b336000908152600160205260409020546106285760405162461bcd60e51b81526020600482015260146024820152734e6f2066756e647320746f20776974686472617760601b6044820152606401610309565b33600081815260016020526040808220805490839055905190929183156108fc02918491818181858888f19350505050158015610669573d6000803e3d6000fd5b5060405181815233907f42b2a4ad2d4bdf57e819ccd3c6ce6d0a8d6d20b5d3dbf94ef2b05c42f523c6109060200160405180910390a250565b6000546001600160a01b031633146106cc5760405162461bcd60e51b815260040161030990610b93565b6106d86005543461091d565b600555565b6000546001600160a01b031633146107075760405162461bcd60e51b815260040161030990610b93565b610710816109bf565b50565b6000546001600160a01b0316331461073d5760405162461bcd60e51b815260040161030990610b93565b600080546040516001600160a01b039091169083908381818185875af1925050503d806000811461078a576040519150601f19603f3d011682016040523d82523d6000602084013e61078f565b606091505b505090508061057b5760405162461bcd60e51b81526020600482015260146024820152732330b4b632b2103a379039b2b7321022ba3432b960611b6044820152606401610309565b6000806107e54360016108b7565b600354904091508114156107f857600080fd5b600381905560045460009061080e908390610a7f565b9050600081600114610821576000610824565b60015b60ff16949350505050565b60008261083e575060006108b1565b600061084a8385610c00565b9050826108578583610be0565b146108ae5760405162461bcd60e51b815260206004820152602160248201527f536166654d6174683a206d756c7469706c69636174696f6e206f766572666c6f6044820152607760f81b6064820152608401610309565b90505b92915050565b6000828211156109095760405162461bcd60e51b815260206004820152601e60248201527f536166654d6174683a207375627472616374696f6e206f766572666c6f7700006044820152606401610309565b60006109158385610c1f565b949350505050565b60008061092a8385610bc8565b9050838110156108ae5760405162461bcd60e51b815260206004820152601b60248201527f536166654d6174683a206164646974696f6e206f766572666c6f7700000000006044820152606401610309565b610710816040516024016109909190610b40565b60408051601f198184030181529190526020810180516001600160e01b031663104c13eb60e21b179052610adc565b6001600160a01b038116610a245760405162461bcd60e51b815260206004820152602660248201527f4f776e61626c653a206e6577206f776e657220697320746865207a65726f206160448201526564647265737360d01b6064820152608401610309565b600080546040516001600160a01b03808516939216917f8be0079c531659141344cd1fd0a4f28419497f9722a3daafe3b4186f6b6457e091a3600080546001600160a01b0319166001600160a01b0392909216919091179055565b6000808211610ad05760405162461bcd60e51b815260206004820152601a60248201527f536166654d6174683a206469766973696f6e206279207a65726f0000000000006044820152606401610309565b60006109158385610be0565b6107108160006a636f6e736f6c652e6c6f679050600080835160208501845afa505050565b600060208284031215610b12578081fd5b81356001600160a01b03811681146108ae578182fd5b600060208284031215610b39578081fd5b5035919050565b6000602080835283518082850152825b81811015610b6c57858101830151858201604001528201610b50565b81811115610b7d5783604083870101525b50601f01601f1916929092016040019392505050565b6020808252818101527f4f776e61626c653a2063616c6c6572206973206e6f7420746865206f776e6572604082015260600190565b60008219821115610bdb57610bdb610c36565b500190565b600082610bfb57634e487b7160e01b81526012600452602481fd5b500490565b6000816000190483118215151615610c1a57610c1a610c36565b500290565b600082821015610c3157610c31610c36565b500390565b634e487b7160e01b600052601160045260246000fdfea2646970667358221220f239deba9535591cab0fba29c263532f8dce5f58418478c73af63b0a52c8afc464736f6c63430008040033",
  "linkReferences": {},
  "deployedLinkReferences": {}
}