{"contracts/Coinflip.sol":{"Coinflip":{"abi":[{"inputs":[],"stateMutability":"nonpayable","type":"constructor"},{"anonymous":false,"inputs":[{"indexed":true,"internalType":"address","name":"previousOwner","type":"address"},{"indexed":true,"internalType":"address","name":"newOwner","type":"address"}],"name":"OwnershipTransferred","type":"event"},{"anonymous":false,"inputs":[{"indexed":false,"internalType":"string","name":"description","type":"string"}],"name":"logNewProvableQuery","type":"event"},{"anonymous":false,"inputs":[{"indexed":true,"internalType":"address","name":"caller","type":"address"},{"indexed":false,"internalType":"uint256","name":"amount","type":"uint256"}],"name":"userWithdrawal","type":"event"},{"inputs":[],"name":"contractBalance","outputs":[{"internalType":"uint256","name":"","type":"uint256"}],"stateMutability":"view","type":"function"},{"inputs":[{"internalType":"uint256","name":"oneZero","type":"uint256"}],"name":"flip","outputs":[],"stateMutability":"payable","type":"function"},{"inputs":[],"name":"freeCallback","outputs":[{"internalType":"bool","name":"","type":"bool"}],"stateMutability":"view","type":"function"},{"inputs":[],"name":"fundContract","outputs":[],"stateMutability":"payable","type":"function"},{"inputs":[],"name":"fundWinnings","outputs":[],"stateMutability":"payable","type":"function"},{"inputs":[],"name":"getWinningsBalance","outputs":[{"internalType":"uint256","name":"","type":"uint256"}],"stateMutability":"view","type":"function"},{"inputs":[],"name":"owner","outputs":[{"internalType":"address","name":"","type":"address"}],"stateMutability":"view","type":"function"},{"inputs":[{"internalType":"address","name":"","type":"address"}],"name":"playerWinnings","outputs":[{"internalType":"uint256","name":"","type":"uint256"}],"stateMutability":"view","type":"function"},{"inputs":[],"name":"renounceOwnership","outputs":[],"stateMutability":"nonpayable","type":"function"},{"inputs":[{"internalType":"address","name":"newOwner","type":"address"}],"name":"transferOwnership","outputs":[],"stateMutability":"nonpayable","type":"function"},{"inputs":[{"internalType":"address","name":"","type":"address"}],"name":"waiting","outputs":[{"internalType":"address","name":"playerAddress","type":"address"},{"internalType":"uint256","name":"betValue","type":"uint256"},{"internalType":"uint256","name":"headsTails","type":"uint256"}],"stateMutability":"view","type":"function"},{"inputs":[],"name":"withdrawAll","outputs":[],"stateMutability":"nonpayable","type":"function"},{"inputs":[],"name":"withdrawUserWinnings","outputs":[],"stateMutability":"nonpayable","type":"function"}],"devdoc":{"kind":"dev","methods":{"flip(uint256)":{"details":"The function first checks if this is the very first call to the Provable oracle in order     for the user to not pay for the first free call. This also adds user values to two different     mappings: 'waiting' and 'afterWaiting.' Both mappings are necessary in order to bridge the     user's address (which we has access to here with msg.sender) and the user's queryId sent from     Provable after the function call.","params":{"oneZero":"- The numerical value of heads(0) or tails(1)"}}},"version":1},"evm":{"bytecode":{"linkReferences":{},"object":"6080604052600160ff1b6004556006805460ff1916600117905534801561002557600080fd5b50600080546001600160a01b031916339081178255604051909182917f8be0079c531659141344cd1fd0a4f28419497f9722a3daafe3b4186f6b6457e0908290a3506109fd806100766000396000f3fe6080604052600436106100c25760003560e01c80638b7afe2e1161007f578063b3e2541211610059578063b3e25412146101d8578063bd097e21146101ed578063e437786d146101f5578063f2fde38b1461026157600080fd5b80638b7afe2e146101925780638da5cb5b146101a8578063a5ce8496146101d057600080fd5b8063221e885d146100c7578063252f4d81146100dc578063715018a61461011c578063741c0a0f14610131578063853828b614610153578063876c0d5914610168575b600080fd5b6100da6100d53660046108f6565b610281565b005b3480156100e857600080fd5b506101096100f73660046108cf565b60016020526000908152604090205481565b6040519081526020015b60405180910390f35b34801561012857600080fd5b506100da61039f565b34801561013d57600080fd5b5033600090815260016020526040902054610109565b34801561015f57600080fd5b506100da610413565b34801561017457600080fd5b506006546101829060ff1681565b6040519015158152602001610113565b34801561019e57600080fd5b5061010960055481565b3480156101b457600080fd5b506000546040516001600160a01b039091168152602001610113565b6100da610479565b3480156101e457600080fd5b506100da6104cf565b6100da61059c565b34801561020157600080fd5b5061023c6102103660046108cf565b60026020819052600091825260409091208054600182015491909201546001600160a01b039092169183565b604080516001600160a01b039094168452602084019290925290820152606001610113565b34801561026d57600080fd5b506100da61027c3660046108cf565b6105d7565b34600554116102d75760405162461bcd60e51b815260206004820152601a60248201527f576520646f6e2774206861766520656e6f7567682066756e647300000000000060448201526064015b60405180910390fd5b604080516060810182523380825234602083015291810183905260006102fb61060d565b9050816040015181141561037b57600061032461031d84602001516002610665565b60006106ed565b905061033660055484602001516106ed565b6005556001600160a01b03841660009081526001602052604090205461035c9082610753565b6001600160a01b03851660009081526001602052604090205550610399565b610395600554610390846020015160006106ed565b610753565b6005555b50505050565b6000546001600160a01b031633146103c95760405162461bcd60e51b81526004016102ce9061090e565b600080546040516001600160a01b03909116907f8be0079c531659141344cd1fd0a4f28419497f9722a3daafe3b4186f6b6457e0908390a3600080546001600160a01b0319169055565b6000546001600160a01b0316331461043d5760405162461bcd60e51b81526004016102ce9061090e565b600580546000918290556040519091339183156108fc0291849190818181858888f19350505050158015610475573d6000803e3d6000fd5b5050565b6000546001600160a01b031633146104a35760405162461bcd60e51b81526004016102ce9061090e565b336000908152600160205260409020546104bd9034610753565b33600090815260016020526040902055565b336000908152600160205260409020546105225760405162461bcd60e51b81526020600482015260146024820152734e6f2066756e647320746f20776974686472617760601b60448201526064016102ce565b33600081815260016020526040808220805490839055905190929183156108fc02918491818181858888f19350505050158015610563573d6000803e3d6000fd5b5060405181815233907f42b2a4ad2d4bdf57e819ccd3c6ce6d0a8d6d20b5d3dbf94ef2b05c42f523c6109060200160405180910390a250565b6000546001600160a01b031633146105c65760405162461bcd60e51b81526004016102ce9061090e565b6105d260055434610753565b600555565b6000546001600160a01b031633146106015760405162461bcd60e51b81526004016102ce9061090e565b61060a816107b2565b50565b60008061061b4360016106ed565b6003549040915081141561062e57600080fd5b6003819055600454600090610644908390610872565b905060008160011461065757600061065a565b60015b60ff16949350505050565b600082610674575060006106e7565b6000610680838561097b565b90508261068d858361095b565b146106e45760405162461bcd60e51b815260206004820152602160248201527f536166654d6174683a206d756c7469706c69636174696f6e206f766572666c6f6044820152607760f81b60648201526084016102ce565b90505b92915050565b60008282111561073f5760405162461bcd60e51b815260206004820152601e60248201527f536166654d6174683a207375627472616374696f6e206f766572666c6f77000060448201526064016102ce565b600061074b838561099a565b949350505050565b6000806107608385610943565b9050838110156106e45760405162461bcd60e51b815260206004820152601b60248201527f536166654d6174683a206164646974696f6e206f766572666c6f77000000000060448201526064016102ce565b6001600160a01b0381166108175760405162461bcd60e51b815260206004820152602660248201527f4f776e61626c653a206e6577206f776e657220697320746865207a65726f206160448201526564647265737360d01b60648201526084016102ce565b600080546040516001600160a01b03808516939216917f8be0079c531659141344cd1fd0a4f28419497f9722a3daafe3b4186f6b6457e091a3600080546001600160a01b0319166001600160a01b0392909216919091179055565b60008082116108c35760405162461bcd60e51b815260206004820152601a60248201527f536166654d6174683a206469766973696f6e206279207a65726f00000000000060448201526064016102ce565b600061074b838561095b565b6000602082840312156108e0578081fd5b81356001600160a01b03811681146106e4578182fd5b600060208284031215610907578081fd5b5035919050565b6020808252818101527f4f776e61626c653a2063616c6c6572206973206e6f7420746865206f776e6572604082015260600190565b60008219821115610956576109566109b1565b500190565b60008261097657634e487b7160e01b81526012600452602481fd5b500490565b6000816000190483118215151615610995576109956109b1565b500290565b6000828210156109ac576109ac6109b1565b500390565b634e487b7160e01b600052601160045260246000fdfea2646970667358221220272a29b077a483f44faf6a1819153e5e40adda1683478c895b7ab8fa054e218f64736f6c63430008040033","opcodes":"PUSH1 0x80 PUSH1 0x40 MSTORE PUSH1 0x1 PUSH1 0xFF SHL PUSH1 0x4 SSTORE PUSH1 0x6 DUP1 SLOAD PUSH1 0xFF NOT AND PUSH1 0x1 OR SWAP1 SSTORE CALLVALUE DUP1 ISZERO PUSH2 0x25 JUMPI PUSH1 0x0 DUP1 REVERT JUMPDEST POP PUSH1 0x0 DUP1 SLOAD PUSH1 0x1 PUSH1 0x1 PUSH1 0xA0 SHL SUB NOT AND CALLER SWAP1 DUP2 OR DUP3 SSTORE PUSH1 0x40 MLOAD SWAP1 SWAP2 DUP3 SWAP2 PUSH32 0x8BE0079C531659141344CD1FD0A4F28419497F9722A3DAAFE3B4186F6B6457E0 SWAP1 DUP3 SWAP1 LOG3 POP PUSH2 0x9FD DUP1 PUSH2 0x76 PUSH1 0x0 CODECOPY PUSH1 0x0 RETURN INVALID PUSH1 0x80 PUSH1 0x40 MSTORE PUSH1 0x4 CALLDATASIZE LT PUSH2 0xC2 JUMPI PUSH1 0x0 CALLDATALOAD PUSH1 0xE0 SHR DUP1 PUSH4 0x8B7AFE2E GT PUSH2 0x7F JUMPI DUP1 PUSH4 0xB3E25412 GT PUSH2 0x59 JUMPI DUP1 PUSH4 0xB3E25412 EQ PUSH2 0x1D8 JUMPI DUP1 PUSH4 0xBD097E21 EQ PUSH2 0x1ED JUMPI DUP1 PUSH4 0xE437786D EQ PUSH2 0x1F5 JUMPI DUP1 PUSH4 0xF2FDE38B EQ PUSH2 0x261 JUMPI PUSH1 0x0 DUP1 REVERT JUMPDEST DUP1 PUSH4 0x8B7AFE2E EQ PUSH2 0x192 JUMPI DUP1 PUSH4 0x8DA5CB5B EQ PUSH2 0x1A8 JUMPI DUP1 PUSH4 0xA5CE8496 EQ PUSH2 0x1D0 JUMPI PUSH1 0x0 DUP1 REVERT JUMPDEST DUP1 PUSH4 0x221E885D EQ PUSH2 0xC7 JUMPI DUP1 PUSH4 0x252F4D81 EQ PUSH2 0xDC JUMPI DUP1 PUSH4 0x715018A6 EQ PUSH2 0x11C JUMPI DUP1 PUSH4 0x741C0A0F EQ PUSH2 0x131 JUMPI DUP1 PUSH4 0x853828B6 EQ PUSH2 0x153 JUMPI DUP1 PUSH4 0x876C0D59 EQ PUSH2 0x168 JUMPI JUMPDEST PUSH1 0x0 DUP1 REVERT JUMPDEST PUSH2 0xDA PUSH2 0xD5 CALLDATASIZE PUSH1 0x4 PUSH2 0x8F6 JUMP JUMPDEST PUSH2 0x281 JUMP JUMPDEST STOP JUMPDEST CALLVALUE DUP1 ISZERO PUSH2 0xE8 JUMPI PUSH1 0x0 DUP1 REVERT JUMPDEST POP PUSH2 0x109 PUSH2 0xF7 CALLDATASIZE PUSH1 0x4 PUSH2 0x8CF JUMP JUMPDEST PUSH1 0x1 PUSH1 0x20 MSTORE PUSH1 0x0 SWAP1 DUP2 MSTORE PUSH1 0x40 SWAP1 KECCAK256 SLOAD DUP2 JUMP JUMPDEST PUSH1 0x40 MLOAD SWAP1 DUP2 MSTORE PUSH1 0x20 ADD JUMPDEST PUSH1 0x40 MLOAD DUP1 SWAP2 SUB SWAP1 RETURN JUMPDEST CALLVALUE DUP1 ISZERO PUSH2 0x128 JUMPI PUSH1 0x0 DUP1 REVERT JUMPDEST POP PUSH2 0xDA PUSH2 0x39F JUMP JUMPDEST CALLVALUE DUP1 ISZERO PUSH2 0x13D JUMPI PUSH1 0x0 DUP1 REVERT JUMPDEST POP CALLER PUSH1 0x0 SWAP1 DUP2 MSTORE PUSH1 0x1 PUSH1 0x20 MSTORE PUSH1 0x40 SWAP1 KECCAK256 SLOAD PUSH2 0x109 JUMP JUMPDEST CALLVALUE DUP1 ISZERO PUSH2 0x15F JUMPI PUSH1 0x0 DUP1 REVERT JUMPDEST POP PUSH2 0xDA PUSH2 0x413 JUMP JUMPDEST CALLVALUE DUP1 ISZERO PUSH2 0x174 JUMPI PUSH1 0x0 DUP1 REVERT JUMPDEST POP PUSH1 0x6 SLOAD PUSH2 0x182 SWAP1 PUSH1 0xFF AND DUP2 JUMP JUMPDEST PUSH1 0x40 MLOAD SWAP1 ISZERO ISZERO DUP2 MSTORE PUSH1 0x20 ADD PUSH2 0x113 JUMP JUMPDEST CALLVALUE DUP1 ISZERO PUSH2 0x19E JUMPI PUSH1 0x0 DUP1 REVERT JUMPDEST POP PUSH2 0x109 PUSH1 0x5 SLOAD DUP2 JUMP JUMPDEST CALLVALUE DUP1 ISZERO PUSH2 0x1B4 JUMPI PUSH1 0x0 DUP1 REVERT JUMPDEST POP PUSH1 0x0 SLOAD PUSH1 0x40 MLOAD PUSH1 0x1 PUSH1 0x1 PUSH1 0xA0 SHL SUB SWAP1 SWAP2 AND DUP2 MSTORE PUSH1 0x20 ADD PUSH2 0x113 JUMP JUMPDEST PUSH2 0xDA PUSH2 0x479 JUMP JUMPDEST CALLVALUE DUP1 ISZERO PUSH2 0x1E4 JUMPI PUSH1 0x0 DUP1 REVERT JUMPDEST POP PUSH2 0xDA PUSH2 0x4CF JUMP JUMPDEST PUSH2 0xDA PUSH2 0x59C JUMP JUMPDEST CALLVALUE DUP1 ISZERO PUSH2 0x201 JUMPI PUSH1 0x0 DUP1 REVERT JUMPDEST POP PUSH2 0x23C PUSH2 0x210 CALLDATASIZE PUSH1 0x4 PUSH2 0x8CF JUMP JUMPDEST PUSH1 0x2 PUSH1 0x20 DUP2 SWAP1 MSTORE PUSH1 0x0 SWAP2 DUP3 MSTORE PUSH1 0x40 SWAP1 SWAP2 KECCAK256 DUP1 SLOAD PUSH1 0x1 DUP3 ADD SLOAD SWAP2 SWAP1 SWAP3 ADD SLOAD PUSH1 0x1 PUSH1 0x1 PUSH1 0xA0 SHL SUB SWAP1 SWAP3 AND SWAP2 DUP4 JUMP JUMPDEST PUSH1 0x40 DUP1 MLOAD PUSH1 0x1 PUSH1 0x1 PUSH1 0xA0 SHL SUB SWAP1 SWAP5 AND DUP5 MSTORE PUSH1 0x20 DUP5 ADD SWAP3 SWAP1 SWAP3 MSTORE SWAP1 DUP3 ADD MSTORE PUSH1 0x60 ADD PUSH2 0x113 JUMP JUMPDEST CALLVALUE DUP1 ISZERO PUSH2 0x26D JUMPI PUSH1 0x0 DUP1 REVERT JUMPDEST POP PUSH2 0xDA PUSH2 0x27C CALLDATASIZE PUSH1 0x4 PUSH2 0x8CF JUMP JUMPDEST PUSH2 0x5D7 JUMP JUMPDEST CALLVALUE PUSH1 0x5 SLOAD GT PUSH2 0x2D7 JUMPI PUSH1 0x40 MLOAD PUSH3 0x461BCD PUSH1 0xE5 SHL DUP2 MSTORE PUSH1 0x20 PUSH1 0x4 DUP3 ADD MSTORE PUSH1 0x1A PUSH1 0x24 DUP3 ADD MSTORE PUSH32 0x576520646F6E2774206861766520656E6F7567682066756E6473000000000000 PUSH1 0x44 DUP3 ADD MSTORE PUSH1 0x64 ADD JUMPDEST PUSH1 0x40 MLOAD DUP1 SWAP2 SUB SWAP1 REVERT JUMPDEST PUSH1 0x40 DUP1 MLOAD PUSH1 0x60 DUP2 ADD DUP3 MSTORE CALLER DUP1 DUP3 MSTORE CALLVALUE PUSH1 0x20 DUP4 ADD MSTORE SWAP2 DUP2 ADD DUP4 SWAP1 MSTORE PUSH1 0x0 PUSH2 0x2FB PUSH2 0x60D JUMP JUMPDEST SWAP1 POP DUP2 PUSH1 0x40 ADD MLOAD DUP2 EQ ISZERO PUSH2 0x37B JUMPI PUSH1 0x0 PUSH2 0x324 PUSH2 0x31D DUP5 PUSH1 0x20 ADD MLOAD PUSH1 0x2 PUSH2 0x665 JUMP JUMPDEST PUSH1 0x0 PUSH2 0x6ED JUMP JUMPDEST SWAP1 POP PUSH2 0x336 PUSH1 0x5 SLOAD DUP5 PUSH1 0x20 ADD MLOAD PUSH2 0x6ED JUMP JUMPDEST PUSH1 0x5 SSTORE PUSH1 0x1 PUSH1 0x1 PUSH1 0xA0 SHL SUB DUP5 AND PUSH1 0x0 SWAP1 DUP2 MSTORE PUSH1 0x1 PUSH1 0x20 MSTORE PUSH1 0x40 SWAP1 KECCAK256 SLOAD PUSH2 0x35C SWAP1 DUP3 PUSH2 0x753 JUMP JUMPDEST PUSH1 0x1 PUSH1 0x1 PUSH1 0xA0 SHL SUB DUP6 AND PUSH1 0x0 SWAP1 DUP2 MSTORE PUSH1 0x1 PUSH1 0x20 MSTORE PUSH1 0x40 SWAP1 KECCAK256 SSTORE POP PUSH2 0x399 JUMP JUMPDEST PUSH2 0x395 PUSH1 0x5 SLOAD PUSH2 0x390 DUP5 PUSH1 0x20 ADD MLOAD PUSH1 0x0 PUSH2 0x6ED JUMP JUMPDEST PUSH2 0x753 JUMP JUMPDEST PUSH1 0x5 SSTORE JUMPDEST POP POP POP POP JUMP JUMPDEST PUSH1 0x0 SLOAD PUSH1 0x1 PUSH1 0x1 PUSH1 0xA0 SHL SUB AND CALLER EQ PUSH2 0x3C9 JUMPI PUSH1 0x40 MLOAD PUSH3 0x461BCD PUSH1 0xE5 SHL DUP2 MSTORE PUSH1 0x4 ADD PUSH2 0x2CE SWAP1 PUSH2 0x90E JUMP JUMPDEST PUSH1 0x0 DUP1 SLOAD PUSH1 0x40 MLOAD PUSH1 0x1 PUSH1 0x1 PUSH1 0xA0 SHL SUB SWAP1 SWAP2 AND SWAP1 PUSH32 0x8BE0079C531659141344CD1FD0A4F28419497F9722A3DAAFE3B4186F6B6457E0 SWAP1 DUP4 SWAP1 LOG3 PUSH1 0x0 DUP1 SLOAD PUSH1 0x1 PUSH1 0x1 PUSH1 0xA0 SHL SUB NOT AND SWAP1 SSTORE JUMP JUMPDEST PUSH1 0x0 SLOAD PUSH1 0x1 PUSH1 0x1 PUSH1 0xA0 SHL SUB AND CALLER EQ PUSH2 0x43D JUMPI PUSH1 0x40 MLOAD PUSH3 0x461BCD PUSH1 0xE5 SHL DUP2 MSTORE PUSH1 0x4 ADD PUSH2 0x2CE SWAP1 PUSH2 0x90E JUMP JUMPDEST PUSH1 0x5 DUP1 SLOAD PUSH1 0x0 SWAP2 DUP3 SWAP1 SSTORE PUSH1 0x40 MLOAD SWAP1 SWAP2 CALLER SWAP2 DUP4 ISZERO PUSH2 0x8FC MUL SWAP2 DUP5 SWAP2 SWAP1 DUP2 DUP2 DUP2 DUP6 DUP9 DUP9 CALL SWAP4 POP POP POP POP ISZERO DUP1 ISZERO PUSH2 0x475 JUMPI RETURNDATASIZE PUSH1 0x0 DUP1 RETURNDATACOPY RETURNDATASIZE PUSH1 0x0 REVERT JUMPDEST POP POP JUMP JUMPDEST PUSH1 0x0 SLOAD PUSH1 0x1 PUSH1 0x1 PUSH1 0xA0 SHL SUB AND CALLER EQ PUSH2 0x4A3 JUMPI PUSH1 0x40 MLOAD PUSH3 0x461BCD PUSH1 0xE5 SHL DUP2 MSTORE PUSH1 0x4 ADD PUSH2 0x2CE SWAP1 PUSH2 0x90E JUMP JUMPDEST CALLER PUSH1 0x0 SWAP1 DUP2 MSTORE PUSH1 0x1 PUSH1 0x20 MSTORE PUSH1 0x40 SWAP1 KECCAK256 SLOAD PUSH2 0x4BD SWAP1 CALLVALUE PUSH2 0x753 JUMP JUMPDEST CALLER PUSH1 0x0 SWAP1 DUP2 MSTORE PUSH1 0x1 PUSH1 0x20 MSTORE PUSH1 0x40 SWAP1 KECCAK256 SSTORE JUMP JUMPDEST CALLER PUSH1 0x0 SWAP1 DUP2 MSTORE PUSH1 0x1 PUSH1 0x20 MSTORE PUSH1 0x40 SWAP1 KECCAK256 SLOAD PUSH2 0x522 JUMPI PUSH1 0x40 MLOAD PUSH3 0x461BCD PUSH1 0xE5 SHL DUP2 MSTORE PUSH1 0x20 PUSH1 0x4 DUP3 ADD MSTORE PUSH1 0x14 PUSH1 0x24 DUP3 ADD MSTORE PUSH20 0x4E6F2066756E647320746F207769746864726177 PUSH1 0x60 SHL PUSH1 0x44 DUP3 ADD MSTORE PUSH1 0x64 ADD PUSH2 0x2CE JUMP JUMPDEST CALLER PUSH1 0x0 DUP2 DUP2 MSTORE PUSH1 0x1 PUSH1 0x20 MSTORE PUSH1 0x40 DUP1 DUP3 KECCAK256 DUP1 SLOAD SWAP1 DUP4 SWAP1 SSTORE SWAP1 MLOAD SWAP1 SWAP3 SWAP2 DUP4 ISZERO PUSH2 0x8FC MUL SWAP2 DUP5 SWAP2 DUP2 DUP2 DUP2 DUP6 DUP9 DUP9 CALL SWAP4 POP POP POP POP ISZERO DUP1 ISZERO PUSH2 0x563 JUMPI RETURNDATASIZE PUSH1 0x0 DUP1 RETURNDATACOPY RETURNDATASIZE PUSH1 0x0 REVERT JUMPDEST POP PUSH1 0x40 MLOAD DUP2 DUP2 MSTORE CALLER SWAP1 PUSH32 0x42B2A4AD2D4BDF57E819CCD3C6CE6D0A8D6D20B5D3DBF94EF2B05C42F523C610 SWAP1 PUSH1 0x20 ADD PUSH1 0x40 MLOAD DUP1 SWAP2 SUB SWAP1 LOG2 POP JUMP JUMPDEST PUSH1 0x0 SLOAD PUSH1 0x1 PUSH1 0x1 PUSH1 0xA0 SHL SUB AND CALLER EQ PUSH2 0x5C6 JUMPI PUSH1 0x40 MLOAD PUSH3 0x461BCD PUSH1 0xE5 SHL DUP2 MSTORE PUSH1 0x4 ADD PUSH2 0x2CE SWAP1 PUSH2 0x90E JUMP JUMPDEST PUSH2 0x5D2 PUSH1 0x5 SLOAD CALLVALUE PUSH2 0x753 JUMP JUMPDEST PUSH1 0x5 SSTORE JUMP JUMPDEST PUSH1 0x0 SLOAD PUSH1 0x1 PUSH1 0x1 PUSH1 0xA0 SHL SUB AND CALLER EQ PUSH2 0x601 JUMPI PUSH1 0x40 MLOAD PUSH3 0x461BCD PUSH1 0xE5 SHL DUP2 MSTORE PUSH1 0x4 ADD PUSH2 0x2CE SWAP1 PUSH2 0x90E JUMP JUMPDEST PUSH2 0x60A DUP2 PUSH2 0x7B2 JUMP JUMPDEST POP JUMP JUMPDEST PUSH1 0x0 DUP1 PUSH2 0x61B NUMBER PUSH1 0x1 PUSH2 0x6ED JUMP JUMPDEST PUSH1 0x3 SLOAD SWAP1 BLOCKHASH SWAP2 POP DUP2 EQ ISZERO PUSH2 0x62E JUMPI PUSH1 0x0 DUP1 REVERT JUMPDEST PUSH1 0x3 DUP2 SWAP1 SSTORE PUSH1 0x4 SLOAD PUSH1 0x0 SWAP1 PUSH2 0x644 SWAP1 DUP4 SWAP1 PUSH2 0x872 JUMP JUMPDEST SWAP1 POP PUSH1 0x0 DUP2 PUSH1 0x1 EQ PUSH2 0x657 JUMPI PUSH1 0x0 PUSH2 0x65A JUMP JUMPDEST PUSH1 0x1 JUMPDEST PUSH1 0xFF AND SWAP5 SWAP4 POP POP POP POP JUMP JUMPDEST PUSH1 0x0 DUP3 PUSH2 0x674 JUMPI POP PUSH1 0x0 PUSH2 0x6E7 JUMP JUMPDEST PUSH1 0x0 PUSH2 0x680 DUP4 DUP6 PUSH2 0x97B JUMP JUMPDEST SWAP1 POP DUP3 PUSH2 0x68D DUP6 DUP4 PUSH2 0x95B JUMP JUMPDEST EQ PUSH2 0x6E4 JUMPI PUSH1 0x40 MLOAD PUSH3 0x461BCD PUSH1 0xE5 SHL DUP2 MSTORE PUSH1 0x20 PUSH1 0x4 DUP3 ADD MSTORE PUSH1 0x21 PUSH1 0x24 DUP3 ADD MSTORE PUSH32 0x536166654D6174683A206D756C7469706C69636174696F6E206F766572666C6F PUSH1 0x44 DUP3 ADD MSTORE PUSH1 0x77 PUSH1 0xF8 SHL PUSH1 0x64 DUP3 ADD MSTORE PUSH1 0x84 ADD PUSH2 0x2CE JUMP JUMPDEST SWAP1 POP JUMPDEST SWAP3 SWAP2 POP POP JUMP JUMPDEST PUSH1 0x0 DUP3 DUP3 GT ISZERO PUSH2 0x73F JUMPI PUSH1 0x40 MLOAD PUSH3 0x461BCD PUSH1 0xE5 SHL DUP2 MSTORE PUSH1 0x20 PUSH1 0x4 DUP3 ADD MSTORE PUSH1 0x1E PUSH1 0x24 DUP3 ADD MSTORE PUSH32 0x536166654D6174683A207375627472616374696F6E206F766572666C6F770000 PUSH1 0x44 DUP3 ADD MSTORE PUSH1 0x64 ADD PUSH2 0x2CE JUMP JUMPDEST PUSH1 0x0 PUSH2 0x74B DUP4 DUP6 PUSH2 0x99A JUMP JUMPDEST SWAP5 SWAP4 POP POP POP POP JUMP JUMPDEST PUSH1 0x0 DUP1 PUSH2 0x760 DUP4 DUP6 PUSH2 0x943 JUMP JUMPDEST SWAP1 POP DUP4 DUP2 LT ISZERO PUSH2 0x6E4 JUMPI PUSH1 0x40 MLOAD PUSH3 0x461BCD PUSH1 0xE5 SHL DUP2 MSTORE PUSH1 0x20 PUSH1 0x4 DUP3 ADD MSTORE PUSH1 0x1B PUSH1 0x24 DUP3 ADD MSTORE PUSH32 0x536166654D6174683A206164646974696F6E206F766572666C6F770000000000 PUSH1 0x44 DUP3 ADD MSTORE PUSH1 0x64 ADD PUSH2 0x2CE JUMP JUMPDEST PUSH1 0x1 PUSH1 0x1 PUSH1 0xA0 SHL SUB DUP2 AND PUSH2 0x817 JUMPI PUSH1 0x40 MLOAD PUSH3 0x461BCD PUSH1 0xE5 SHL DUP2 MSTORE PUSH1 0x20 PUSH1 0x4 DUP3 ADD MSTORE PUSH1 0x26 PUSH1 0x24 DUP3 ADD MSTORE PUSH32 0x4F776E61626C653A206E6577206F776E657220697320746865207A65726F2061 PUSH1 0x44 DUP3 ADD MSTORE PUSH6 0x646472657373 PUSH1 0xD0 SHL PUSH1 0x64 DUP3 ADD MSTORE PUSH1 0x84 ADD PUSH2 0x2CE JUMP JUMPDEST PUSH1 0x0 DUP1 SLOAD PUSH1 0x40 MLOAD PUSH1 0x1 PUSH1 0x1 PUSH1 0xA0 SHL SUB DUP1 DUP6 AND SWAP4 SWAP3 AND SWAP2 PUSH32 0x8BE0079C531659141344CD1FD0A4F28419497F9722A3DAAFE3B4186F6B6457E0 SWAP2 LOG3 PUSH1 0x0 DUP1 SLOAD PUSH1 0x1 PUSH1 0x1 PUSH1 0xA0 SHL SUB NOT AND PUSH1 0x1 PUSH1 0x1 PUSH1 0xA0 SHL SUB SWAP3 SWAP1 SWAP3 AND SWAP2 SWAP1 SWAP2 OR SWAP1 SSTORE JUMP JUMPDEST PUSH1 0x0 DUP1 DUP3 GT PUSH2 0x8C3 JUMPI PUSH1 0x40 MLOAD PUSH3 0x461BCD PUSH1 0xE5 SHL DUP2 MSTORE PUSH1 0x20 PUSH1 0x4 DUP3 ADD MSTORE PUSH1 0x1A PUSH1 0x24 DUP3 ADD MSTORE PUSH32 0x536166654D6174683A206469766973696F6E206279207A65726F000000000000 PUSH1 0x44 DUP3 ADD MSTORE PUSH1 0x64 ADD PUSH2 0x2CE JUMP JUMPDEST PUSH1 0x0 PUSH2 0x74B DUP4 DUP6 PUSH2 0x95B JUMP JUMPDEST PUSH1 0x0 PUSH1 0x20 DUP3 DUP5 SUB SLT ISZERO PUSH2 0x8E0 JUMPI DUP1 DUP2 REVERT JUMPDEST DUP2 CALLDATALOAD PUSH1 0x1 PUSH1 0x1 PUSH1 0xA0 SHL SUB DUP2 AND DUP2 EQ PUSH2 0x6E4 JUMPI DUP2 DUP3 REVERT JUMPDEST PUSH1 0x0 PUSH1 0x20 DUP3 DUP5 SUB SLT ISZERO PUSH2 0x907 JUMPI DUP1 DUP2 REVERT JUMPDEST POP CALLDATALOAD SWAP2 SWAP1 POP JUMP JUMPDEST PUSH1 0x20 DUP1 DUP3 MSTORE DUP2 DUP2 ADD MSTORE PUSH32 0x4F776E61626C653A2063616C6C6572206973206E6F7420746865206F776E6572 PUSH1 0x40 DUP3 ADD MSTORE PUSH1 0x60 ADD SWAP1 JUMP JUMPDEST PUSH1 0x0 DUP3 NOT DUP3 GT ISZERO PUSH2 0x956 JUMPI PUSH2 0x956 PUSH2 0x9B1 JUMP JUMPDEST POP ADD SWAP1 JUMP JUMPDEST PUSH1 0x0 DUP3 PUSH2 0x976 JUMPI PUSH4 0x4E487B71 PUSH1 0xE0 SHL DUP2 MSTORE PUSH1 0x12 PUSH1 0x4 MSTORE PUSH1 0x24 DUP2 REVERT JUMPDEST POP DIV SWAP1 JUMP JUMPDEST PUSH1 0x0 DUP2 PUSH1 0x0 NOT DIV DUP4 GT DUP3 ISZERO ISZERO AND ISZERO PUSH2 0x995 JUMPI PUSH2 0x995 PUSH2 0x9B1 JUMP JUMPDEST POP MUL SWAP1 JUMP JUMPDEST PUSH1 0x0 DUP3 DUP3 LT ISZERO PUSH2 0x9AC JUMPI PUSH2 0x9AC PUSH2 0x9B1 JUMP JUMPDEST POP SUB SWAP1 JUMP JUMPDEST PUSH4 0x4E487B71 PUSH1 0xE0 SHL PUSH1 0x0 MSTORE PUSH1 0x11 PUSH1 0x4 MSTORE PUSH1 0x24 PUSH1 0x0 REVERT INVALID LOG2 PUSH5 0x6970667358 0x22 SLT KECCAK256 0x27 0x2A 0x29 0xB0 PUSH24 0xA483F44FAF6A1819153E5E40ADDA1683478C895B7AB8FA05 0x4E 0x21 DUP16 PUSH5 0x736F6C6343 STOP ADDMOD DIV STOP CALLER "},"gasEstimates":{"creation":{"codeDepositCost":"511400","executionCost":"63752","totalCost":"575152"},"external":{"contractBalance()":"1007","flip(uint256)":"infinite","freeCallback()":"1121","fundContract()":"21959","fundWinnings()":"22121","getWinningsBalance()":"1116","owner()":"1046","playerWinnings(address)":"1200","renounceOwnership()":"24210","transferOwnership(address)":"24486","waiting(address)":"2977","withdrawAll()":"infinite","withdrawUserWinnings()":"infinite"},"internal":{"getResult()":"infinite"}},"methodIdentifiers":{"contractBalance()":"8b7afe2e","flip(uint256)":"221e885d","freeCallback()":"876c0d59","fundContract()":"bd097e21","fundWinnings()":"a5ce8496","getWinningsBalance()":"741c0a0f","owner()":"8da5cb5b","playerWinnings(address)":"252f4d81","renounceOwnership()":"715018a6","transferOwnership(address)":"f2fde38b","waiting(address)":"e437786d","withdrawAll()":"853828b6","withdrawUserWinnings()":"b3e25412"}},"storageLayout":{"storage":[{"astId":163,"contract":"contracts/Coinflip.sol:Coinflip","label":"_owner","offset":0,"slot":"0","type":"t_address"},{"astId":285,"contract":"contracts/Coinflip.sol:Coinflip","label":"playerWinnings","offset":0,"slot":"1","type":"t_mapping(t_address,t_uint256)"},{"astId":290,"contract":"contracts/Coinflip.sol:Coinflip","label":"waiting","offset":0,"slot":"2","type":"t_mapping(t_address,t_struct(Bet)281_storage)"},{"astId":302,"contract":"contracts/Coinflip.sol:Coinflip","label":"lastHash","offset":0,"slot":"3","type":"t_uint256"},{"astId":305,"contract":"contracts/Coinflip.sol:Coinflip","label":"FACTOR","offset":0,"slot":"4","type":"t_uint256"},{"astId":307,"contract":"contracts/Coinflip.sol:Coinflip","label":"contractBalance","offset":0,"slot":"5","type":"t_uint256"},{"astId":310,"contract":"contracts/Coinflip.sol:Coinflip","label":"freeCallback","offset":0,"slot":"6","type":"t_bool"}],"types":{"t_address":{"encoding":"inplace","label":"address","numberOfBytes":"20"},"t_bool":{"encoding":"inplace","label":"bool","numberOfBytes":"1"},"t_mapping(t_address,t_struct(Bet)281_storage)":{"encoding":"mapping","key":"t_address","label":"mapping(address => struct Coinflip.Bet)","numberOfBytes":"32","value":"t_struct(Bet)281_storage"},"t_mapping(t_address,t_uint256)":{"encoding":"mapping","key":"t_address","label":"mapping(address => uint256)","numberOfBytes":"32","value":"t_uint256"},"t_struct(Bet)281_storage":{"encoding":"inplace","label":"struct Coinflip.Bet","members":[{"astId":276,"contract":"contracts/Coinflip.sol:Coinflip","label":"playerAddress","offset":0,"slot":"0","type":"t_address"},{"astId":278,"contract":"contracts/Coinflip.sol:Coinflip","label":"betValue","offset":0,"slot":"1","type":"t_uint256"},{"astId":280,"contract":"contracts/Coinflip.sol:Coinflip","label":"headsTails","offset":0,"slot":"2","type":"t_uint256"}],"numberOfBytes":"96"},"t_uint256":{"encoding":"inplace","label":"uint256","numberOfBytes":"32"}}},"userdoc":{"kind":"user","methods":{"flip(uint256)":{"notice":"This function simulates a coin flip which makes a call to the Provable oracle for        a random number."},"fundContract()":{"notice":"The following functions are reserved for the owner of the contract."}},"version":1}}}}